:100000000C9453000C94CE020C94A7020C947B0029
:100010000C947B000C947B000C947B000C947B0074
:100020000C947B000C947B000C947B000C947B0064
:100030000C947B000C947B000C947B000C947B0054
:100040000C945D020C947B000C942B020C94050222
:100050000C947B000C947B000C947B000C947B0034
:100060000C947B000C947B0000000000250028000D
:100070002B0000000000240027002A0004040404D0
:100080000404040402020202020203030303030342
:10009000010204081020408001020408102001021F
:1000A00004081020190511241FBECFEFD8E0DEBFD1
:1000B000CDBF11E0A0E0B1E0E8E5FFE002C00590AF
:1000C0000D92A433B107D9F721E0A4E3B1E001C058
:1000D0001D92A63EB207E1F710E0C3E5D0E004C0F0
:1000E0002197FE010E94A407C235D107C9F70E94DB
:1000F000F5020C94AA070C940000809141019091A4
:100100004201A0914301B09144010196A11DB11D8E
:100110008093410190934201A0934301B093440125
:100120000895AF92BF92CF92DF92EF92FF920F931A
:100130001F93CF93DF936C017B018B01040F151F7D
:10014000EB015E01AE18BF08C017D10759F06991E5
:10015000D601ED91FC910190F081E02DC601099549
:10016000892B79F7C501DF91CF911F910F91FF90F6
:10017000EF90DF90CF90BF90AF900895FC01538D2A
:10018000448D252F30E0842F90E0821B930B541771
:1001900010F0CF96089501970895FC01918D828DFE
:1001A000981761F0A28DAE0FBF2FB11D5D968C9197
:1001B000928D9F5F9F73928F90E008958FEF9FEFD6
:1001C0000895FC01918D828D981731F0828DE80F92
:1001D000F11D858D90E008958FEF9FEF0895FC014C
:1001E000918D228D892F90E0805C9F4F821B910919
:1001F0008F739927089589E491E00E94EF0021E030
:10020000892B09F420E0822F089580E090E0892B6B
:1002100029F00E94FB0081110C9400000895FC015C
:10022000A48DA80FB92FB11DA35ABF4F2C91848D57
:1002300090E001968F739927848FA689B7892C93B4
:10024000A089B1898C91837080648C93938D848D07
:10025000981306C00288F389E02D80818F7D80830A
:100260000895EF92FF920F931F93CF93DF93EC01CA
:1002700081E0888F9B8D8C8D98131AC0E889F9894D
:10028000808185FF15C09FB7F894EE89FF89608350
:10029000E889F98980818370806480839FBF81E0D1
:1002A00090E0DF91CF911F910F91FF90EF90089513
:1002B000F62E0B8D10E00F5F1F4F0F731127E02EEE
:1002C0008C8D8E110CC00FB607FCFACFE889F98926
:1002D000808185FFF5CFCE010E940F01F1CFEB8D1C
:1002E000EC0FFD2FF11DE35AFF4FF0829FB7F894FA
:1002F0000B8FEA89FB8980818062CFCFCF93DF9318
:10030000EC01888D8823B9F0AA89BB89E889F9892D
:100310008C9185FD03C0808186FD0DC00FB607FC62
:10032000F7CF8C9185FFF2CF808185FFEDCFCE0195
:100330000E940F01E9CFDF91CF9108958E3008F030
:100340008E508770806480937C0080917A008064F6
:1003500080937A0080917A0086FDFCCF80917800AE
:100360009091790008950895FC0101900020E9F72B
:100370003197AF01481B590BBC0189E491E00C9403
:1003800091008F929F92AF92BF920F931F93CF9342
:10039000DF93CDB7DEB7A1970FB6F894DEBF0FBEDF
:1003A000CDBF19A2423008F44AE08E010F5D1F4F05
:1003B000842E912CB12CA12CA50194010E944605FC
:1003C000E62FB901CA01EA30F4F4E05DD801EE93FA
:1003D0008D01232B242B252B79F790E080E01097BB
:1003E00019F0CD010E94B401A1960FB6F894DEBFBA
:1003F0000FBECDBFDF91CF911F910F91BF90AF90F6
:100400009F908F900895E95CE1CF1F920F920FB6F5
:100410000F9211242F933F934F935F936F937F938A
:100420008F939F93AF93BF93EF93FF9389E491E0F2
:100430000E940F01FF91EF91BF91AF919F918F911A
:100440007F916F915F914F913F912F910F900FBED0
:100450000F901F9018951F920F920FB60F921124B4
:100460002F938F939F93EF93FF93E0915901F09116
:100470005A018081E0915F01F091600182FD1BC013
:100480009081809162018F5F8F7320916301821749
:1004900041F0E0916201F0E0E75BFE4F958F8093C1
:1004A0006201FF91EF919F918F912F910F900FBE5D
:1004B0000F901F9018958081F4CF1F920F920FB666
:1004C0000F9211242F933F938F939F93AF93BF93DA
:1004D0008091390190913A01A0913B01B0913C018A
:1004E0003091380123E0230F2D3758F50196A11DD7
:1004F000B11D209338018093390190933A01A09364
:100500003B01B0933C018091340190913501A09161
:100510003601B09137010196A11DB11D80933401C0
:1005200090933501A0933601B0933701BF91AF91FD
:100530009F918F913F912F910F900FBE0F901F9021
:10054000189526E8230F0296A11DB11DD2CF1F9248
:100550000F920FB60F9211242F933F934F935F93F7
:100560006F937F938F939F93AF93BF93EF93FF937B
:10057000E0910201F09103010995FF91EF91BF9184
:10058000AF919F918F917F916F915F914F913F912B
:100590002F910F900FBE0F901F9018951F920F92E2
:1005A0000FB60F9211242F933F934F935F936F9346
:1005B0007F938F939F93AF93BF93EF93FF93E091BC
:1005C0000001F09101010995FF91EF91BF91AF9169
:1005D0009F918F917F916F915F914F913F912F915B
:1005E0000F900FBE0F901F901895CF93DF93CDB74C
:1005F000DEB7C65DD1090FB6F894DEBF0FBECDBF22
:10060000789484B5826084BD84B5816084BD85B5ED
:10061000826085BD85B5816085BD80916E008160F9
:1006200080936E001092810080918100826080939F
:1006300081008091810081608093810080918000A1
:100640008160809380008091B10084608093B100CC
:100650008091B00081608093B00080917A008460C6
:1006600080937A0080917A00826080937A008091F2
:100670007A00816080937A0080917A00806880930C
:100680007A001092C100EFE9F0E02491EBE8F0E08D
:1006900084918823C9F090E0880F991FFC01EE58DF
:1006A000FF4F45915491FC01E859FF4FA591B4913A
:1006B0009FB7F894FA0180812095822380838C91E2
:1006C000E22FE823EC939FBFE0915901F0915A018A
:1006D00082E08083E0915501F09156011082E09113
:1006E0005701F091580180E1808310926101E091FF
:1006F0005D01F0915E0186E08083E0915B01F09105
:100700005C01808180618083E0915B01F0915C01FC
:10071000808188608083E0915B01F0915C01808141
:1007200080688083E0915B01F0915C0180818F7D26
:100730008083E2E9F0E02491EEE7F0E08491882301
:10074000C9F090E0880F991FFC01EE58FF4F4591CA
:100750005491FC01E859FF4FA591B4919FB7F894CB
:10076000FA013081822F809583238083EC91E22BE4
:10077000EC939FBF8DE790E090930101809300017F
:1007800080916900836080936900E89A8E01015F1F
:100790001F4F5E01F7EDAF0EB11C80E0882E80E0A8
:1007A000982E1A8309831C830B83BE82AD82B88680
:1007B000AF8219861E868EE00E949E018EE00E9406
:1007C0009E018FE00E949E018EE00E949E018FE0BC
:1007D0000E949E012FB7F8948091390190913A01BF
:1007E000A0913B01B0913C012FBF40914501509138
:1007F00046016091470170914801841B950BA60B3F
:10080000B70B883E9340A105B10508F474C02FB71B
:10081000F8948091390190913A01A0913B01B091F7
:100820003C012FBF8093450190934601A09347015F
:10083000B093480186E191E00E94B40160914101CA
:100840007091420180914301909144014AE00E94DD
:10085000C1018EE191E00E94B4016091410170916B
:10086000420180914301909144010E947B0626E35E
:1008700038EE46EE54E40E94320720E030E040E7D4
:1008800052E40E94DA0520E030E04AE754E40E9496
:10089000DA0526E636E646E650E40E943207609323
:1008A0003D0170933E0180933F019093400181E2AE
:1008B00091E00E94B401C0903D01D0903E01E090D3
:1008C0003F01F0904001A7019601C701B6010E94C7
:1008D0009F078823E1F088E291E00E94B4018EE155
:1008E00091E00E94B40110924101109242011092D5
:1008F0004301109244018114910409F452CF0E94E3
:10090000FB00882309F44DCF0E9400004ACF260146
:100910003701E89477F82FEF3FEF4FE75FE7C30128
:10092000B2010E949F0781110DC02FEF3FEF4FE7EB
:100930005FE7C301B2010E94D50518161CF48CE2D2
:1009400091E0CBCF2FEF3FEF4FE75FE4C701B60158
:100950000E942D0718161CF480E391E0BECF2FEF04
:100960003FEF4FE75FECC701B6010E94D50587FD59
:10097000F3CF20E030E0A901C701B6010E94D50500
:1009800087FF09C06DE289E491E00E943101F7FA26
:10099000F094F7F8F0942AE037ED43EA5BE3C701FF
:1009A000B6010E9469052B013C010E944C066B01B7
:1009B0007C010E947B069B01AC01C301B2010E9435
:1009C00068052B013C014AE0C701B6010E94C10144
:1009D0006EE289E491E00E94310120E030E040E2E3
:1009E00051E4C301B2010E9432072B013C010E9475
:1009F0004C066B01F12CE12C4AE0C701B6010E94C4
:100A0000C101C701B6010E947B069B01AC01C30175
:100A1000B2010E94680520E030E040E251E40E940B
:100A200032070E944C0690E080E04AE00E94C1013B
:100A300056CFE9E4F1E01382128288EE93E0A0E061
:100A4000B0E084839583A683B78388E091E09183A7
:100A5000808385EC90E09587848784EC90E097878D
:100A6000868780EC90E0918B808B81EC90E0938B7B
:100A7000828B82EC90E0958B848B86EC90E0978B58
:100A8000868B118E128E138E148E0895A1E21A2E6B
:100A9000AA1BBB1BFD010DC0AA1FBB1FEE1FFF1F22
:100AA000A217B307E407F50720F0A21BB30BE40B72
:100AB000F50B661F771F881F991F1A9469F76095B9
:100AC0007095809590959B01AC01BD01CF01089573
:100AD0005058BB27AA270E9480050C94F3060E9459
:100AE000E50638F00E94EC0620F039F49F3F19F437
:100AF00026F40C94E2060EF4E095E7FB0C94DC0679
:100B0000E92F0E94040758F3BA1762077307840796
:100B1000950720F079F4A6F50C9426070EF4E095DD
:100B20000B2EBA2FA02D0B01B90190010C01CA01A7
:100B3000A0011124FF27591B99F0593F50F4503E52
:100B400068F11A16F040A22F232F342F4427585F44
:100B5000F3CF469537952795A795F0405395C9F75C
:100B60007EF41F16BA0B620B730B840BBAF0915014
:100B7000A1F0FF0FBB1F661F771F881FC2F70EC0B3
:100B8000BA0F621F731F841F48F487957795679586
:100B9000B795F7959E3F08F0B0CF9395880F08F072
:100BA0009927EE0F9795879508950E94B80608F447
:100BB00081E008950E94EE050C94F3060E94EC0675
:100BC00058F00E94E50640F029F45F3F29F00C94AC
:100BD000DC0651110C9427070C94E2060E940407CE
:100BE00068F39923B1F3552391F3951B550BBB275C
:100BF000AA2762177307840738F09F5F5F4F220FA1
:100C0000331F441FAA1FA9F335D00E2E3AF0E0E897
:100C100032D091505040E695001CCAF72BD0FE2FE1
:100C200029D0660F771F881FBB1F26173707480775
:100C3000AB07B0E809F0BB0B802DBF01FF2793582D
:100C40005F4F3AF09E3F510578F00C94DC060C940F
:100C500027075F3FE4F3983ED4F386957795679531
:100C6000B795F7959F5FC9F7880F911D9695879562
:100C700097F90895E1E0660F771F881FBB1F621781
:100C800073078407BA0720F0621B730B840BBA0B3F
:100C9000EE1F88F7E09508950E940C0788F09F5793
:100CA00098F0B92F9927B751B0F0E1F0660F771F90
:100CB000881F991F1AF0BA95C9F714C0B13091F086
:100CC0000E942607B1E008950C942607672F782F1D
:100CD0008827B85F39F0B93FCCF38695779567954B
:100CE000B395D9F73EF490958095709561957F4FB7
:100CF0008F4F9F4F0895E89409C097FB3EF490955D
:100D00008095709561957F4F8F4F9F4F9923A9F0E4
:100D1000F92F96E9BB279395F69587957795679573
:100D2000B795F111F8CFFAF4BB0F11F460FF1BC0B7
:100D30006F5F7F4F8F4F9F4F16C0882311F096E94A
:100D400011C0772321F09EE8872F762F05C06623F8
:100D500071F096E8862F70E060E02AF09A95660FB1
:100D6000771F881FDAF7880F9695879597F908956A
:100D7000990F0008550FAA0BE0E8FEEF16161706AC
:100D8000E807F907C0F012161306E407F50798F014
:100D9000621B730B840B950B39F40A2661F0232B2D
:100DA000242B252B21F408950A2609F4A140A695A9
:100DB0008FEF811D811D089597F99F6780E870E08E
:100DC00060E008959FEF80EC089500240A941616C1
:100DD000170618060906089500240A941216130629
:100DE000140605060895092E0394000C11F48823B7
:100DF00052F0BB0F40F4BF2B11F460FF04C06F5FD3
:100E00007F4F8F4F9F4F089557FD9058440F551FA8
:100E100059F05F3F71F04795880F97FB991F61F07C
:100E20009F3F79F087950895121613061406551FF3
:100E3000F2CF4695F1DF08C0161617061806991F5F
:100E4000F1CF86957105610508940895E894BB2754
:100E500066277727CB0197F908950E94B80608F412
:100E60008FEF08950E9445070C94F3060E94E50653
:100E700038F00E94EC0620F0952311F00C94DC066B
:100E80000C94E20611240C9427070E94040770F3C7
:100E9000959FC1F3950F50E0551F629FF001729F1F
:100EA000BB27F00DB11D639FAA27F00DB11DAA1F2E
:100EB000649F6627B00DA11D661F829F2227B00D7B
:100EC000A11D621F739FB00DA11D621F839FA00D06
:100ED000611D221F749F3327A00D611D231F849F56
:100EE000600D211D822F762F6A2F11249F575040AD
:100EF0009AF0F1F088234AF0EE0FFF1FBB1F661F28
:100F0000771F881F91505040A9F79E3F510580F0F0
:100F10000C94DC060C9427075F3FE4F3983ED4F36F
:100F2000869577956795B795F795E7959F5FC1F794
:100F3000FE2B880F911D9695879597F908950E942D
:100F4000B806880B990B0895EE0FFF1F0590F491DA
:080F5000E02D0994F894FFCF95
:100F5800B301B3010000000031019100BE007E0121
:100F6800EF00CD00E100486572747A3A20000D0A5E
:100F7800004B4D2F483A20006E616E00696E660086
:040F88006F7666001A
:00000001FF
