:100000000C94B8000C94B6060C948F060C94E00087
:100010000C94E0000C94E0000C94E0000C94E000E0
:100020000C94E0000C94E0000C94E0000C94E000D0
:100030000C94E0000C94E0000C94E0000C94E000C0
:100040000C9445060C94E0000C9413060C94ED05FA
:100050000C94E0000C94E0000C94E0000C94E000A0
:100060000C94E0000C94E00008000000BE922449CB
:10007000123EABAAAA2ABECDCCCC4C3E00000080DA
:10008000BEABAAAAAA3E00000000BF000000803F4D
:100090000000000000084178D3BB4387D1133D190D
:1000A0000E3CC3BD4282AD2B3E68EC8276BED98F3A
:1000B000E1A93E4C80EFFFBE01C4FF7F3F0000007E
:1000C000000007634236B79BD8A71A39685618AEA6
:1000D000BAAB558C1D3CB7CC5763BD6DEDFD753E7D
:1000E000F6177231BF000000803FCDCCCC3D0AD75F
:1000F000233C17B7D13877CC2B329595E6241FB126
:100100004F0A0000803FCDCCCC3D6F12833A95BFA3
:10011000D6337D1D9026B3CE010C00002041000097
:10012000C84200401C4620BCBE4CCA1B0E5AAEC57D
:100130009D7400000000250028002B000000000036
:10014000240027002A000404040404040404020216
:100150000202020203030303030301020408102046
:1001600040800102040810200102040810203C090C
:1001700011241FBECFEFD8E0DEBFCDBF11E0A0E05D
:10018000B1E0ECE0FBE102C005900D92AE34B107A6
:10019000D9F722E0AEE4B1E001C01D92A630B2076B
:1001A000E1F710E0C8EBD0E004C02197FE010E9407
:1001B000750DC73BD107C9F70E94DD060C94840D6D
:1001C0000C9400008091FA019091FB01A091FC0138
:1001D000B091FD010196A11DB11D8093FA0190938C
:1001E000FB01A093FC01B093FD010895AF92BF9273
:1001F000CF92DF92EF92FF920F931F93CF93DF93F3
:100200006C017B018B01040F151FEB015E01AE1821
:10021000BF08C017D10759F06991D601ED91FC9143
:100220000190F081E02DC6010995892B79F7C50170
:10023000DF91CF911F910F91FF90EF90DF90CF90C2
:10024000BF90AF900895FC01538D448D252F30E071
:10025000842F90E0821B930B541710F0CF960895D3
:1002600001970895FC01918D828D981761F0A28D00
:10027000AE0FBF2FB11D5D968C91928D9F5F9F73C6
:10028000928F90E008958FEF9FEF0895FC01918D7C
:10029000828D981731F0828DE80FF11D858D90E0E9
:1002A00008958FEF9FEF0895FC01918D228D892F86
:1002B00090E0805C9F4F821B91098F73992708956E
:1002C00089E591E00E94540121E0892B09F420E0A6
:1002D000822F089580E090E0892B29F00E94600130
:1002E00081110C9400000895FC01A48DA80FB92F72
:1002F000B11DA35ABF4F2C91848D90E001968F734E
:100300009927848FA689B7892C93A089B1898C916C
:10031000837080648C93938D848D981306C00288BB
:10032000F389E02D80818F7D80830895EF92FF9285
:100330000F931F93CF93DF93EC0181E0888F9B8D08
:100340008C8D98131AC0E889F989808185FF15C0C2
:100350009FB7F894EE89FF896083E889F9898081E5
:100360008370806480839FBF81E090E0DF91CF91B4
:100370001F910F91FF90EF900895F62E0B8D10E0D6
:100380000F5F1F4F0F731127E02E8C8D8E110CC045
:100390000FB607FCFACFE889F989808185FFF5CF90
:1003A000CE010E947401F1CFEB8DEC0FFD2FF11DFA
:1003B000E35AFF4FF0829FB7F8940B8FEA89FB89CD
:1003C00080818062CFCFCF93DF93EC01888D88232B
:1003D000B9F0AA89BB89E889F9898C9185FD03C0A8
:1003E000808186FD0DC00FB607FCF7CF8C9185FF8D
:1003F000F2CF808185FFEDCFCE010E947401E9CF5D
:10040000DF91CF9108958E3008F08E508770806410
:1004100080937C0080917A00806480937A00809140
:100420007A0086FDFCCF8091780090917900089544
:100430000895CF93DF93EC0188819981DC01ED91E0
:10044000FC910190F081E02D09952A813B81820F7A
:10045000931F9B838A83DF91CF910895CF93DF937E
:10046000EC0188819981DC01ED91FC910280F3819E
:10047000E02D09952A813B81820F931F9B838A83FC
:10048000DF91CF9108958F929F92AF92BF92CF92BA
:10049000DF92EF92FF920F931F93CF93DF93CDB72D
:1004A000DEB766970FB6F894DEBF0FBECDBF6C0106
:1004B0008E01095E1F4F78018AE0882E912CA12CB5
:1004C000B12CCB01BA01A50194010E947409942FAB
:1004D000852F605DF80162938F01A901692F782F44
:1004E000411551056105710561F7A7014E1B5F0BB1
:1004F000BF01C6010E942E0266960FB6F894DEBFB9
:100500000FBECDBFDF91CF911F910F91FF90EF9064
:10051000DF90CF90BF90AF909F908F900895EF9213
:10052000FF920F931F93CF93DF93EC017B0162E265
:100530000E9419028701F80161918F01662391F0F1
:10054000E6E1F1E0F280FF2049F032968181681304
:10055000F9CF6CE5CE010E9419026F2DCE010E94E9
:100560001902E9CF62E2CE01DF91CF911F910F9185
:10057000FF90EF900C941902FC012581222339F0A1
:10058000F8E02F0290011124820F931F089590E04C
:1005900080E00895FB0101900020E9F73197AF0159
:1005A000461B570B0C942E022F923F924F925F9254
:1005B0006F927F928F929F92AF92BF92CF92DF9273
:1005C000EF92FF920F931F93CF93DF93CDB7DEB7D8
:1005D0006C970FB6F894DEBF0FBECDBF8C011B0128
:1005E000DC0114968C9114978F77863009F474C2CD
:1005F00078F48230B0F0843008F04CC212964D91FD
:100600005C9113976D917C91C1010E942E0226C2CC
:100610008C3069F160F4883009F459C28A3009F4E9
:100620003FC267E271E0C1010E94CA02E5C18032A7
:1006300009F4ECC18034A9F76BE5C1010E941902ED
:10064000F801008111810115110509F4DAC1B10128
:10065000C8010E94D402C8010E94BC028C01892BEF
:1006600009F4CFC16CE2C1010E941902ECCFF8017C
:10067000C080D180E280F380A7019601C701B60156
:100680000E94120A8111CDCF20E030E0A901C701FC
:10069000B6010E94120A882379F0A7019601C701CA
:1006A000B6010E94A6099B01AC01C701B6010E94D8
:1006B000120A882309F4B5CF20E030E0A901C70170
:1006C000B6010E94120A87FF08C06DE2C1010E94B4
:1006D0001902F7FAF094F7F8F09420E836E948E1C7
:1006E0005BE4C701B6010E946A0B87FD81C074E11B
:1006F000A72EB12C00E210E0188E1F8AF501E65EED
:10070000FE4F2591359145915491C701B6010E9444
:100710006A0B87FD13C0F501E651FF4F2591359116
:1007200045915491C701B6010E94BF0B6B017C013A
:100730002F89388D200F311F388F2F8B15950795F6
:1007400034E0A31AB1088CEFA8168FEFB806B1F603
:1007500055245A9420E030E0A901C701B6010E9457
:100760006A0B18160CF04BC02CEA35EC47E257E345
:10077000C701B6010E94120A18160CF440C0A52D3C
:10078000B4E0AB02C0011124912C812CFC01EE5F7E
:10079000FE4F3F019C01265E3E4F59013FEF53162D
:1007A00071F1F301E80DF91D6591759185919491B1
:1007B000A70196010E946A0B18169CF4F501E80D3A
:1007C000F91D2591359145915491C701B6010E94BB
:1007D000BF0B6B017C018F89988D801B910B988FCB
:1007E0008F8B159507955A9494E0891A9108D6CF66
:1007F00000E210E055E0552E188E1F8AABCFC701DE
:10080000B6010E94890A4B015C012B013C0106E004
:1008100080E492E4AFE0B0E0898F9A8FAB8FBC8F19
:10082000102F01509AE04916510461047104C8F078
:10083000698D7A8D8B8D9C8D2AE030E040E050E010
:100840000E947409298F3A8F4B8F5C8FC301B201CC
:100850002AE030E040E050E00E94740929013A01AA
:10086000DFCFC501B4010E94B80A9B01AC01C701EA
:10087000B6010E94A5096B017C01698D7A8D8B8D73
:100880009C8D0E94B80A9B01AC01C701B6010E9471
:10089000BF0B2B013C010E94890A6B017C010E9465
:1008A000B80A9B01AC01C301B2010E94A5099B01DA
:1008B000AC010E94A6090E94890AC60ED71EE81E36
:1008C000F91E898D9A8DAB8DBC8DC816D906EA06A6
:1008D000FB06D8F09FEF891A990AA90AB90AAF89CD
:1008E000B88DAB2B39F1BAE08B169104A104B10499
:1008F00008F1EF89F88D3196F88FEF8BC12CD12C50
:100900007601812C912C540183942AE0422E512CA3
:10091000612C712CC701B601A30192010E947409D8
:10092000672B682B692B51F4111644F469017A0185
:100930001150F0CFC12CD12C7601E7CFB501A40125
:10094000C1010E944302112371F14E01F1E18F0EAA
:10095000911C012F54019AE0492E512C612C712CCD
:10096000015068F0C701B601A30192010E94740909
:10097000605DD4016E934D0169017A01F1CF812F41
:1009800090E0BC0160957095F501E81BF90B31977B
:100990008EE2808344275527461B570B6A0D7B1D2B
:1009A000C1010E942E02EF89F88DEF2B29F165E637
:1009B000C1010E9419020F89188D17FF07C06DE24F
:1009C000C1010E941902119501951109FE01779646
:1009D0009F018AE0E82EF12CC801B7010E94610D49
:1009E000805D82938B01672BB9F7A9014E1B5F0BCA
:1009F000BF01C1010E942E02D10112968D919C91DE
:100A000030C06DE5C1010E941902F6CF6BE7C1014C
:100A10000E941902F8010081118101151105D1F020
:100A2000D80116966D917C91C1010E948F026AE3F4
:100A3000C1010E941902B101C8010E94D402C8017B
:100A40000E94BC028C01892B29F06CE2C1010E943A
:100A50001902E3CF6DE7C1010E941902F101828101
:100A600093816C960FB6F894DEBF0FBECDBFDF91B9
:100A7000CF911F910F91FF90EF90DF90CF90BF909B
:100A8000AF909F908F907F906F905F904F903F902E
:100A90002F9008956D917C91C1010E948F02DECF4D
:100AA000CD90DD90ED90FC90B701A601F7FE0BC054
:100AB0006DE2C1010E94190244275527BA014C1961
:100AC0005D096E097F09C1010E944302C7CF4D91A4
:100AD0005D916D917C91F7CF8C916CE271E0811109
:100AE00002C061E371E0C1010E94CA02B7CFCF9298
:100AF000DF92EF92FF920F931F93CF93DF93FC014E
:100B00008481982F9F7739F4807880628483118262
:100B1000108213821282848185FD0CC0D0E0C0E077
:100B2000CE01DF91CF911F910F91FF90EF90DF9059
:100B3000CF9008956115710589F37A016B018F01DA
:100B4000C081D1812097C1F16E817F816C157D05B7
:100B500039F36115710529F0C6010E947B0D892BBF
:100B6000F9F2CE010E94BC02EC01ECCFE90128971A
:100B7000F701D583C483209789F2D8011296ED91AD
:100B8000FC911397309791F0CE018E1B9F0B23E0C1
:100B9000959587952A95E1F785831396DC93CE93F7
:100BA00012971D821C82DF82CE82BACFF801D183D8
:100BB000C083D383C283F5CFD70114962D913C9186
:100BC000159712968D919C9108962817390770F603
:100BD00081E0D70118968C93A3CF1F920F920FB686
:100BE0000F9211242F933F934F935F936F937F93B3
:100BF0008F939F93AF93BF93EF93FF9389E591E01A
:100C00000E947401FF91EF91BF91AF919F918F91DD
:100C10007F916F915F914F913F912F910F900FBEF8
:100C20000F901F9018951F920F920FB60F921124DC
:100C30002F938F939F93EF93FF93E0916901F0912E
:100C40006A018081E0916F01F091700182FD1BC00B
:100C50009081809172018F5F8F7320917301821751
:100C600041F0E0917201F0E0E75AFE4F958F8093DA
:100C70007201FF91EF919F918F912F910F900FBE75
:100C80000F901F9018958081F4CF1F920F920FB68E
:100C90000F9211242F933F938F939F93AF93BF9302
:100CA0008091530190915401A0915501B09156014A
:100CB0003091520123E0230F2D3758F50196A11DE5
:100CC000B11D209352018093530190935401A0933E
:100CD0005501B093560180914E0190914F01A09122
:100CE0005001B09151010196A11DB11D80934E019B
:100CF00090934F01A0935001B0935101BF91AF91D8
:100D00009F918F913F912F910F900FBE0F901F9049
:100D1000189526E8230F0296A11DB11DD2CF1F9270
:100D20000F920FB60F9211242F933F934F935F931F
:100D30006F937F938F939F93AF93BF93EF93FF93A3
:100D4000E0910201F09103010995FF91EF91BF91AC
:100D5000AF919F918F917F916F915F914F913F9153
:100D60002F910F900FBE0F901F9018951F920F920A
:100D70000FB60F9211242F933F934F935F936F936E
:100D80007F938F939F93AF93BF93EF93FF93E091E4
:100D90000001F09101010995FF91EF91BF91AF9191
:100DA0009F918F917F916F915F914F913F912F9183
:100DB0000F900FBE0F901F901895CF93DF93CDB774
:100DC000DEB7C657D1090FB6F894DEBF0FBECDBF50
:100DD000789484B5826084BD84B5816084BD85B516
:100DE000826085BD85B5816085BD80916E00816022
:100DF00080936E00109281008091810082608093C8
:100E000081008091810081608093810080918000C9
:100E10008160809380008091B10084608093B100F4
:100E20008091B00081608093B00080917A008460EE
:100E300080937A0080917A00826080937A0080911A
:100E40007A00816080937A0080917A008068809334
:100E50007A001092C100E9E6F1E02491E5E5F1E0C5
:100E600084918823C9F090E0880F991FFC01E45C0D
:100E7000FE4F45915491FC01EE5CFE4FA591B4915B
:100E80009FB7F894FA0180812095822380838C910A
:100E9000E22FE823EC939FBFE0916901F0916A0192
:100EA00082E08083E0916501F09166011082E0911B
:100EB0006701F091680180E1808310927101E091F7
:100EC0006D01F0916E0186E08083E0916B01F091FD
:100ED0006C01808180618083E0916B01F0916C01F5
:100EE000808188608083E0916B01F0916C0180814A
:100EF00080688083E0916B01F0916C0180818F7D2F
:100F00008083ECE5F1E02491E8E4F1E0849188232A
:100F1000C9F090E0880F991FFC01E45CFE4F4591F9
:100F20005491FC01EE5CFE4FA591B4919FB7F894EB
:100F3000FA013081822F809583238083EC91E22B0C
:100F4000EC939FBF82EE90E09093010180930001AB
:100F500080916900836080936900E89A6E01FFE0E8
:100F6000CF0ED11C8E010D581F4F80E0282E80E03F
:100F7000382EDA82C982DC82CB821E830D831887E9
:100F80000F8319861E868EE00E9403028EE00E9467
:100F900003028FE00E9403028EE00E940302BC0164
:100FA000990F880B990B0E94BA0A20E030E040EAC2
:100FB00050E40E94BF0B20E030EC4FE754E40E9465
:100FC000170A9B01AC0160E070E080EA90E40E94A7
:100FD000170A9B01AC0160E070E48CE196E40E948A
:100FE000170A20E030E040E85FE30E94A5099B017A
:100FF000AC0160E079ED88EF97E40E94170A2DE1DB
:1010000038E444EB5FE30E942C0C6093020270937F
:10101000030280930402909305028FE00E94030272
:10102000BC01990F880B990B0E94BA0A9B01AC0175
:1010300060E070EC8FE794E40E94170A20E030E053
:1010400040E85FE30E94A50920E030E44CE156E46B
:101050000E94BF0B0E94770B4B015C012FB7F894E5
:101060008091530190915401A0915501B091560186
:101070002FBF4091FE015091FF01609100027091DD
:101080000102841B950BA60BB70B893E9340A1056B
:10109000B10508F44FC02FB7F89480915301909197
:1010A0005401A0915501B09156012FBF8093FE01CC
:1010B0009093FF01A0930002B09301022091FA01E6
:1010C0003091FB014091FC015091FD01ACE3B0E097
:1010D0000E946909709358016093570190E080E085
:1010E0000E94B80A26E338EE46EE54E40E94BF0B95
:1010F00020E030E040E752E40E94170A20E030E0B0
:101100004AE754E40E94170A26E636E646E650E42B
:101110000E94BF0B6093F6017093F7018093F80172
:101120009093F9011092FA011092FB011092FC01C8
:101130001092FD01AE014F5F5F4F67E371E0CE019A
:101140000A960E947705FC01892B81F040910202EA
:10115000509103026091040270910502948190788D
:101160009C6094834083518362837383AE014F5F9D
:101170005F4F6BE371E0CE010A960E9477057C0118
:101180000097F1F1FC01848180788C6084832CE6E7
:101190003FEC48E554E3C501B4010E94BF0BA50133
:1011A00094010E94BF0BA50194010E94BF0B2B016B
:1011B0003C0126ED34E649E759E3C501B4010E943C
:1011C000BF0B2BEC38E444E85AE30E94A6099B01CC
:1011D000AC01C301B2010E94A6099B01AC0160E011
:1011E00070E080E89FE30E94170A23E333E948E8B0
:1011F00053E40E94A509F70160837183828393837E
:10120000AE014F5F5F4F60E471E0CE010A960E942D
:101210007705FC01892B81F04091F6015091F7018F
:101220006091F8017091F901948190789C609483A9
:10123000408351836283738389E591E0F801918350
:10124000808313821282B801CE010A960E94D402D2
:1012500042E050E06AE471E089E591E00E94F60026
:101260002114310409F485CE0E946001882309F419
:1012700080CE0E9400007DCEE9E5F1E0138212826B
:1012800088EE93E0A0E0B0E084839583A683B783E3
:1012900088E091E09183808385EC90E09587848756
:1012A00084EC90E09787868780EC90E0918B808B30
:1012B00081EC90E0938B828B82EC90E0958B848B19
:1012C00086EC90E0978B868B118E128E138E148E87
:1012D00008950E949609A59F900DB49F900DA49F1C
:1012E000800D911D11240895A1E21A2EAA1BBB1B8B
:1012F000FD010DC0AA1FBB1FEE1FFF1FA217B307E2
:10130000E407F50720F0A21BB30BE40BF50B661FF7
:10131000771F881F991F1A9469F7609570958095BB
:1013200090959B01AC01BD01CF010895A29FB00132
:10133000B39FC001A39F700D811D1124911DB29F09
:10134000700D811D1124911D08955058BB27AA27A7
:101350000E94BD090C94300B0E94220B38F00E94B1
:10136000290B20F039F49F3F19F426F40C941F0B3D
:101370000EF4E095E7FB0C94190BE92F0E94410B4A
:1013800058F3BA17620773078407950720F079F4BA
:10139000A6F50C94630B0EF4E0950B2EBA2FA02D3E
:1013A0000B01B90190010C01CA01A0011124FF2712
:1013B000591B99F0593F50F4503E68F11A16F0400D
:1013C000A22F232F342F4427585FF3CF469537950C
:1013D0002795A795F0405395C9F77EF41F16BA0BD1
:1013E000620B730B840BBAF09150A1F0FF0FBB1F7F
:1013F000661F771F881FC2F70EC0BA0F621F731FC8
:10140000841F48F4879577956795B795F7959E3F24
:1014100008F0B0CF9395880F08F09927EE0F9795B5
:10142000879508950E94F50A08F481E008950E94C6
:101430002B0A0C94300B0E94290B58F00E94220BAF
:1014400040F029F45F3F29F00C94190B51110C94D2
:10145000640B0C941F0B0E94410B68F39923B1F3AA
:10146000552391F3951B550BBB27AA2762177307CA
:10147000840738F09F5F5F4F220F331F441FAA1F5E
:10148000A9F335D00E2E3AF0E0E832D0915050401A
:10149000E695001CCAF72BD0FE2F29D0660F771FC8
:1014A000881FBB1F261737074807AB07B0E809F0AE
:1014B000BB0B802DBF01FF2793585F4F3AF09E3F33
:1014C000510578F00C94190B0C94640B5F3FE4F316
:1014D000983ED4F3869577956795B795F7959F5F76
:1014E000C9F7880F911D9695879597F90895E1E0C2
:1014F000660F771F881FBB1F621773078407BA0721
:1015000020F0621B730B840BBA0BEE1F88F7E0957B
:1015100008950E94490B88F09F5798F0B92F99279A
:10152000B751B0F0E1F0660F771F881F991F1AF0CE
:10153000BA95C9F714C0B13091F00E94630BB1E0C5
:1015400008950C94630B672F782F8827B85F39F0C4
:10155000B93FCCF3869577956795B395D9F73EF467
:1015600090958095709561957F4F8F4F9F4F08950F
:10157000E89409C097FB3EF490958095709561952D
:101580007F4F8F4F9F4F9923A9F0F92F96E9BB27E3
:101590009395F695879577956795B795F111F8CF5F
:1015A000FAF4BB0F11F460FF1BC06F5F7F4F8F4FCA
:1015B0009F4F16C0882311F096E911C0772321F0C0
:1015C0009EE8872F762F05C0662371F096E8862F58
:1015D00070E060E02AF09A95660F771F881FDAF7AF
:1015E000880F9695879597F90895990F0008550FDC
:1015F000AA0BE0E8FEEF16161706E807F907C0F099
:1016000012161306E407F50798F0621B730B840BA0
:10161000950B39F40A2661F0232B242B252B21F47A
:1016200008950A2609F4A140A6958FEF811D811D1A
:10163000089597F99F6780E870E060E008959FEF54
:1016400080EC089500240A94161617061806090659
:10165000089500240A941216130614060506089528
:10166000092E0394000C11F4882352F0BB0F40F4B0
:10167000BF2B11F460FF04C06F5F7F4F8F4F9F4FF0
:10168000089557FD9058440F551F59F05F3F71F072
:101690004795880F97FB991F61F09F3F79F08795D9
:1016A0000895121613061406551FF2CF4695F1DF62
:1016B00008C0161617061806991FF1CF86957105F2
:1016C000610508940895E894BB2766277727CB0126
:1016D00097F908950E94F50A08F48FEF089516F01F
:1016E0000C94B60C0C941F0B68940C94190B0E946C
:1016F000490BA8F39923C1F3AEF3DF93CF931F9364
:101700000F93FF92C92FDD2788232AF02197660FB8
:10171000771F881FDAF720E030E040E85FEB9FE3B7
:10172000883920F0803E38F021968F770E94A609F4
:10173000E8E6F0E004C00E94A609E5E9F0E00E94B6
:10174000C40C8B01BE01EC01FB2E6F57710975951E
:10175000771F880B990B0E94BA0A28E132E741E310
:101760005FE30E94D20BAF2D9801AE01FF900F9165
:101770001F91CF91DF910E94BD090C94300B0E9404
:10178000D20B0C94300B0E94220B38F00E94290BD4
:1017900020F0952311F00C94190B0C941F0B1124BD
:1017A0000C94640B0E94410B70F3959FC1F3950F4D
:1017B00050E0551F629FF001729FBB27F00DB11DD5
:1017C000639FAA27F00DB11DAA1F649F6627B00D65
:1017D000A11D661F829F2227B00DA11D621F739F4E
:1017E000B00DA11D621F839FA00D611D221F749F5C
:1017F0003327A00D611D231F849F600D211D822FA3
:10180000762F6A2F11249F5750409AF0F1F08823C9
:101810004AF0EE0FFF1FBB1F661F771F881F9150F6
:101820005040A9F79E3F510580F00C94190B0C9481
:10183000640B5F3FE4F3983ED4F386957795679504
:10184000B795F795E7959F5FC1F7FE2B880F911D20
:101850009695879597F90895FA01EE0FFF1F309638
:1018600021053105A1F16115710561F48038BFE3EF
:101870009B0749F168949038810561F08038BFEF8B
:101880009B0741F099234AF5FF3FE105310521050A
:1018900019F1E8940894E795D901AA2329F4AB2F0C
:1018A000BE2FF85FD0F310C0FF5F70F4A695E0F78D
:1018B000F73950F019F0FF3A38F49F779F930DD025
:1018C0000F9007FC9058089546F00C941F0B60E0B1
:1018D00070E080E89FE308954FE79F775F934F9311
:1018E0003F932F930E94770B2F913F914F915F91E0
:1018F0000E94BF0B0C94840C29F416F00C94190B65
:101900000C94630B0C941F0B0E94490BA8F39638A0
:10191000A0F707F80F92E8942BE33AEA48EB5FE769
:101920000E94D50B0F920F920F924DB75EB70F9298
:101930000E942D0DE2ECF0E00E94C40C4F915F91EB
:10194000EF91FF91E595EE1FFF1F49F0FE57E0680C
:101950004427EE0F441FFA95E1F74195550B0E947D
:10196000F70C0F9007FE0C94EB0C08959F3F31F09D
:10197000915020F4879577956795B795880F911DBD
:101980009695879597F90895DF93CF931F930F93BB
:10199000FF92EF92DF927B018C01689406C0DA2EF1
:1019A000EF010E94D20BFE01E894A591259135919B
:1019B00045915591A6F3EF010E94BD09FE019701E3
:1019C000A801DA9469F7DF90EF90FF900F911F91D3
:1019D000CF91DF9108959B01AC0160E070E080E859
:1019E0009FE30C94170A0C94190B0C94B60C0E94EC
:1019F000490BD8F39923C9F3940F511DA3F39150C8
:101A0000504094F059F0882332F0660F771F881FFA
:101A100091505040C1F79E3F51052CF7880F911D02
:101A20009695879597F908955F3FACF0983E9CF0A6
:101A3000BB27869577956795B79508F4B160939520
:101A4000C1F7BB0F58F711F460FFE8CF6F5F7F4F0E
:101A50008F4F9F4FE3CF0C94640BFA01DC01AA0F68
:101A6000BB1F9B01AC01BF5728F422273327442713
:101A7000507820C0B75190F4AB2F0024469537958D
:101A80002795011CA395D2F3002071F0220F331F7C
:101A9000441FB395DAF30ED00C94A509613071059B
:101AA000A0E88A07B94630F49B01AC016627772786
:101AB00088279078309621F02083318342835383A6
:101AC0000895AA1BBB1B51E107C0AA1FBB1FA61785
:101AD000B70710F0A61BB70B881F991F5A95A9F7D7
:101AE00080959095BC01CD010895EE0FFF1F0590E4
:101AF000F491E02D0994FB01DC018D910190801996
:0C1B00000110D9F3990B0895F894FFCF61
:101B0C0018021802000000009601F6002301E30100
:101B1C005401320146012F2F22225C5C6208660CB4
:101B2C006E0A720D7409006E756C6C0074727565BA
:101B3C000066616C7365006C75780074656D70007F
:0E1B4C00737065656477696E64000D0A0000B1
:00000001FF
